{
  "contractName": "Bank",
  "abi": [
    {
      "inputs": [],
      "stateMutability": "nonpayable",
      "type": "constructor"
    },
    {
      "inputs": [],
      "name": "minimumDeposit",
      "outputs": [
        {
          "internalType": "uint256",
          "name": "",
          "type": "uint256"
        }
      ],
      "stateMutability": "view",
      "type": "function"
    },
    {
      "inputs": [],
      "name": "owner",
      "outputs": [
        {
          "internalType": "address",
          "name": "",
          "type": "address"
        }
      ],
      "stateMutability": "view",
      "type": "function"
    },
    {
      "inputs": [],
      "name": "paused",
      "outputs": [
        {
          "internalType": "bool",
          "name": "",
          "type": "bool"
        }
      ],
      "stateMutability": "view",
      "type": "function"
    },
    {
      "inputs": [],
      "name": "withdrawLimit",
      "outputs": [
        {
          "internalType": "uint256",
          "name": "",
          "type": "uint256"
        }
      ],
      "stateMutability": "view",
      "type": "function"
    },
    {
      "inputs": [],
      "name": "getBalance",
      "outputs": [
        {
          "internalType": "uint256",
          "name": "",
          "type": "uint256"
        }
      ],
      "stateMutability": "view",
      "type": "function"
    },
    {
      "inputs": [],
      "name": "deposite",
      "outputs": [],
      "stateMutability": "payable",
      "type": "function"
    },
    {
      "inputs": [
        {
          "internalType": "uint256",
          "name": "amount",
          "type": "uint256"
        }
      ],
      "name": "withdraw",
      "outputs": [],
      "stateMutability": "nonpayable",
      "type": "function"
    },
    {
      "inputs": [],
      "name": "pause",
      "outputs": [],
      "stateMutability": "nonpayable",
      "type": "function"
    },
    {
      "inputs": [],
      "name": "unpause",
      "outputs": [],
      "stateMutability": "nonpayable",
      "type": "function"
    }
  ],
  "bytecode": "0x6080604052600a60005560646001556000600260006101000a81548160ff02191690831515021790555034801561003557600080fd5b5033600460006101000a81548173ffffffffffffffffffffffffffffffffffffffff021916908373ffffffffffffffffffffffffffffffffffffffff1602179055506108bc806100866000396000f3fe6080604052600436106100865760003560e01c8063636bfbab11610059578063636bfbab146101215780638456cb591461014c5780638da5cb5b14610163578063a50ec3261461018e578063f848d5411461019857610086565b806312065fe01461008b5780632e1a7d4d146100b65780633f4ba83a146100df5780635c975abb146100f6575b600080fd5b34801561009757600080fd5b506100a06101c3565b6040516100ad9190610742565b60405180910390f35b3480156100c257600080fd5b506100dd60048036038101906100d89190610596565b61020a565b005b3480156100eb57600080fd5b506100f4610391565b005b34801561010257600080fd5b5061010b610408565b60405161011891906106c7565b60405180910390f35b34801561012d57600080fd5b5061013661041b565b6040516101439190610742565b60405180910390f35b34801561015857600080fd5b50610161610421565b005b34801561016f57600080fd5b50610178610498565b60405161018591906106ac565b60405180910390f35b6101966104be565b005b3480156101a457600080fd5b506101ad61057b565b6040516101ba9190610742565b60405180910390f35b6000600360003373ffffffffffffffffffffffffffffffffffffffff1673ffffffffffffffffffffffffffffffffffffffff16815260200190815260200160002054905090565b60001515600260009054906101000a900460ff1615151461022a57600080fd5b60015481111561026f576040517f08c379a000000000000000000000000000000000000000000000000000000000815260040161026690610722565b60405180910390fd5b80600360003373ffffffffffffffffffffffffffffffffffffffff1673ffffffffffffffffffffffffffffffffffffffff1681526020019081526020016000205410156102f1576040517f08c379a00000000000000000000000000000000000000000000000000000000081526004016102e890610702565b60405180910390fd5b3373ffffffffffffffffffffffffffffffffffffffff166108fc829081150290604051600060405180830381858888f19350505050158015610337573d6000803e3d6000fd5b5080600360003373ffffffffffffffffffffffffffffffffffffffff1673ffffffffffffffffffffffffffffffffffffffff168152602001908152602001600020600082825461038791906107c4565b9250508190555050565b3373ffffffffffffffffffffffffffffffffffffffff16600460009054906101000a900473ffffffffffffffffffffffffffffffffffffffff1673ffffffffffffffffffffffffffffffffffffffff16146103eb57600080fd5b6000600260006101000a81548160ff021916908315150217905550565b600260009054906101000a900460ff1681565b60005481565b3373ffffffffffffffffffffffffffffffffffffffff16600460009054906101000a900473ffffffffffffffffffffffffffffffffffffffff1673ffffffffffffffffffffffffffffffffffffffff161461047b57600080fd5b6001600260006101000a81548160ff021916908315150217905550565b600460009054906101000a900473ffffffffffffffffffffffffffffffffffffffff1681565b60001515600260009054906101000a900460ff161515146104de57600080fd5b600054341015610523576040517f08c379a000000000000000000000000000000000000000000000000000000000815260040161051a906106e2565b60405180910390fd5b34600360003373ffffffffffffffffffffffffffffffffffffffff1673ffffffffffffffffffffffffffffffffffffffff1681526020019081526020016000206000828254610572919061076e565b92505081905550565b60015481565b6000813590506105908161086f565b92915050565b6000602082840312156105a857600080fd5b60006105b684828501610581565b91505092915050565b6105c8816107f8565b82525050565b6105d78161080a565b82525050565b60006105ea60078361075d565b91507f6d696e696d756d000000000000000000000000000000000000000000000000006000830152602082019050919050565b600061062a601c8361075d565b91507f4e6f7420656e6f75676874206d6f6e657920796f7520686176653a28000000006000830152602082019050919050565b600061066a60058361075d565b91507f6c696d69740000000000000000000000000000000000000000000000000000006000830152602082019050919050565b6106a681610836565b82525050565b60006020820190506106c160008301846105bf565b92915050565b60006020820190506106dc60008301846105ce565b92915050565b600060208201905081810360008301526106fb816105dd565b9050919050565b6000602082019050818103600083015261071b8161061d565b9050919050565b6000602082019050818103600083015261073b8161065d565b9050919050565b6000602082019050610757600083018461069d565b92915050565b600082825260208201905092915050565b600061077982610836565b915061078483610836565b9250827fffffffffffffffffffffffffffffffffffffffffffffffffffffffffffffffff038211156107b9576107b8610840565b5b828201905092915050565b60006107cf82610836565b91506107da83610836565b9250828210156107ed576107ec610840565b5b828203905092915050565b600061080382610816565b9050919050565b60008115159050919050565b600073ffffffffffffffffffffffffffffffffffffffff82169050919050565b6000819050919050565b7f4e487b7100000000000000000000000000000000000000000000000000000000600052601160045260246000fd5b61087881610836565b811461088357600080fd5b5056fea2646970667358221220fde9259048d14100fbdd6515cbcd07c17ad2aae94f92e9e4bb97904ce12d54df64736f6c63430008000033",
  "immutableReferences": {},
  "source": "// SPDX-License-Identifier: MIT\r\npragma solidity ^0.8.0;\r\n\r\ncontract Bank {\r\n    uint public minimumDeposit = 10;\r\n    uint public withdrawLimit = 100;\r\n    bool public paused = false;\r\n    mapping(address => uint256) private balances;\r\n    address public owner;\r\n\r\n    constructor() {\r\n        owner = msg.sender;\r\n    }\r\n\r\n    function getBalance() public view returns (uint256) {\r\n        return balances[msg.sender];\r\n    }\r\n\r\n    function deposite() public payable {\r\n        require(paused == false);\r\n        require(msg.value >= minimumDeposit, \"minimum\");\r\n        balances[msg.sender] += msg.value;\r\n    }\r\n\r\n    function withdraw(uint256 amount) public {\r\n        require(paused == false);\r\n        require(amount <= withdrawLimit, \"limit\");\r\n        require(balances[msg.sender] >= amount, \"Not enought money you have:(\");\r\n\r\n        // .transfer - передати валюту з контракту на акаунт\r\n        payable(msg.sender).transfer(amount);\r\n        balances[msg.sender] -= amount;\r\n    }\r\n\r\n    function pause() public {\r\n        require(owner == msg.sender);\r\n        paused = true;\r\n    }\r\n\r\n    function unpause() public {\r\n        require(owner == msg.sender);\r\n        paused = false;\r\n    }\r\n}\r\n",
  "sourcePath": "C:\\Users\\aarte\\OneDrive\\Desktop\\-\\Programming\\Repositories\\My repositories\\Web 3.0\\contracts\\bank.sol",
  "compiler": {
    "name": "solc",
    "version": "0.8.0+commit.c7dfd78e.Emscripten.clang"
  },
  "schemaVersion": "3.4.16",
  "updatedAt": "2026-02-20T17:52:37.516Z",
  "devdoc": {
    "kind": "dev",
    "methods": {},
    "version": 1
  },
  "userdoc": {
    "kind": "user",
    "methods": {},
    "version": 1
  }
}