{
  "contractName": "Lottery",
  "abi": [
    {
      "inputs": [],
      "stateMutability": "nonpayable",
      "type": "constructor"
    },
    {
      "inputs": [],
      "name": "manager",
      "outputs": [
        {
          "internalType": "address",
          "name": "",
          "type": "address"
        }
      ],
      "stateMutability": "view",
      "type": "function",
      "constant": true
    },
    {
      "inputs": [
        {
          "internalType": "uint256",
          "name": "",
          "type": "uint256"
        }
      ],
      "name": "members",
      "outputs": [
        {
          "internalType": "address payable",
          "name": "",
          "type": "address"
        }
      ],
      "stateMutability": "view",
      "type": "function",
      "constant": true
    },
    {
      "inputs": [],
      "name": "winner",
      "outputs": [
        {
          "internalType": "address payable",
          "name": "",
          "type": "address"
        }
      ],
      "stateMutability": "view",
      "type": "function",
      "constant": true
    },
    {
      "inputs": [],
      "name": "join",
      "outputs": [
        {
          "internalType": "bool",
          "name": "",
          "type": "bool"
        }
      ],
      "stateMutability": "payable",
      "type": "function",
      "payable": true
    },
    {
      "inputs": [],
      "name": "getBalance",
      "outputs": [
        {
          "internalType": "uint256",
          "name": "",
          "type": "uint256"
        }
      ],
      "stateMutability": "view",
      "type": "function",
      "constant": true
    },
    {
      "inputs": [],
      "name": "getWinner",
      "outputs": [
        {
          "internalType": "address",
          "name": "",
          "type": "address"
        }
      ],
      "stateMutability": "nonpayable",
      "type": "function"
    },
    {
      "inputs": [],
      "name": "getMembers",
      "outputs": [
        {
          "internalType": "address payable[]",
          "name": "",
          "type": "address[]"
        }
      ],
      "stateMutability": "view",
      "type": "function",
      "constant": true
    }
  ],
  "bytecode": "0x608060405234801561001057600080fd5b5033600260006101000a81548173ffffffffffffffffffffffffffffffffffffffff021916908373ffffffffffffffffffffffffffffffffffffffff160217905550610d55806100616000396000f3fe6080604052600436106100705760003560e01c80638e7ea5b21161004e5780638e7ea5b2146101085780639eab525314610133578063b688a3631461015e578063dfbf53ae1461017c57610070565b806312065fe014610075578063481c6a75146100a05780635daf08ca146100cb575b600080fd5b34801561008157600080fd5b5061008a6101a7565b6040516100979190610ba3565b60405180910390f35b3480156100ac57600080fd5b506100b56101af565b6040516100c29190610a90565b60405180910390f35b3480156100d757600080fd5b506100f260048036038101906100ed91906107cc565b6101d5565b6040516100ff9190610aab565b60405180910390f35b34801561011457600080fd5b5061011d610214565b60405161012a9190610a90565b60405180910390f35b34801561013f57600080fd5b50610148610563565b6040516101559190610ac6565b60405180910390f35b6101666105f1565b6040516101739190610ae8565b60405180910390f35b34801561018857600080fd5b506101916106a7565b60405161019e9190610aab565b60405180910390f35b600047905090565b600260009054906101000a900473ffffffffffffffffffffffffffffffffffffffff1681565b600181815481106101e557600080fd5b906000526020600020016000915054906101000a900473ffffffffffffffffffffffffffffffffffffffff1681565b60003373ffffffffffffffffffffffffffffffffffffffff16600260009054906101000a900473ffffffffffffffffffffffffffffffffffffffff1673ffffffffffffffffffffffffffffffffffffffff16146102a6576040517f08c379a000000000000000000000000000000000000000000000000000000000815260040161029d90610b23565b60405180910390fd5b6000600180549050116102ee576040517f08c379a00000000000000000000000000000000000000000000000000000000081526004016102e590610b83565b60405180910390fd5b60004711610331576040517f08c379a000000000000000000000000000000000000000000000000000000000815260040161032890610b03565b60405180910390fd5b600061033b6106cb565b905060018181548110610377577f4e487b7100000000000000000000000000000000000000000000000000000000600052603260045260246000fd5b9060005260206000200160009054906101000a900473ffffffffffffffffffffffffffffffffffffffff166000806101000a81548173ffffffffffffffffffffffffffffffffffffffff021916908373ffffffffffffffffffffffffffffffffffffffff16021790555060008060009054906101000a900473ffffffffffffffffffffffffffffffffffffffff1673ffffffffffffffffffffffffffffffffffffffff166104236101a7565b60405161042f90610a3e565b60006040518083038185875af1925050503d806000811461046c576040519150601f19603f3d011682016040523d82523d6000602084013e610471565b606091505b50509050806104b5576040517f08c379a00000000000000000000000000000000000000000000000000000000081526004016104ac90610b63565b60405180910390fd5b600067ffffffffffffffff8111156104f6577f4e487b7100000000000000000000000000000000000000000000000000000000600052604160045260246000fd5b6040519080825280602002602001820160405280156105245781602001602082028036833780820191505090505b506001908051906020019061053a929190610710565b5060008054906101000a900473ffffffffffffffffffffffffffffffffffffffff169250505090565b606060018054806020026020016040519081016040528092919081815260200182805480156105e757602002820191906000526020600020905b8160009054906101000a900473ffffffffffffffffffffffffffffffffffffffff1673ffffffffffffffffffffffffffffffffffffffff168152602001906001019080831161059d575b5050505050905090565b6000670de0b6b3a7640000341461063d576040517f08c379a000000000000000000000000000000000000000000000000000000000815260040161063490610b43565b60405180910390fd5b6001339080600181540180825580915050600190039060005260206000200160009091909190916101000a81548173ffffffffffffffffffffffffffffffffffffffff021916908373ffffffffffffffffffffffffffffffffffffffff1602179055506001905090565b60008054906101000a900473ffffffffffffffffffffffffffffffffffffffff1681565b60006001805490504244336040516020016106e893929190610a53565b6040516020818303038152906040528051906020012060001c61070b9190610c9b565b905090565b828054828255906000526020600020908101928215610789579160200282015b828111156107885782518260006101000a81548173ffffffffffffffffffffffffffffffffffffffff021916908373ffffffffffffffffffffffffffffffffffffffff16021790555091602001919060010190610730565b5b509050610796919061079a565b5090565b5b808211156107b357600081600090555060010161079b565b5090565b6000813590506107c681610d08565b92915050565b6000602082840312156107de57600080fd5b60006107ec848285016107b7565b91505092915050565b6000610801838361080d565b60208301905092915050565b61081681610c25565b82525050565b61082581610c25565b82525050565b61083481610c13565b82525050565b61084b61084682610c13565b610c6d565b82525050565b600061085c82610bce565b6108668185610be6565b935061087183610bbe565b8060005b838110156108a257815161088988826107f5565b975061089483610bd9565b925050600181019050610875565b5085935050505092915050565b6108b881610c37565b82525050565b60006108cb601283610c02565b91507f4e6f2045544820746f207472616e7366657200000000000000000000000000006000830152602082019050919050565b600061090b601983610c02565b91507f596f752063616e6e6f7420726f6c6c20746865206472756d21000000000000006000830152602082019050919050565b600061094b601a83610c02565b91507f506c656173652070617920312045544820666f72206a6f696e210000000000006000830152602082019050919050565b600061098b601083610c02565b91507f5472616e73666572206661696c656421000000000000000000000000000000006000830152602082019050919050565b60006109cb600083610bf7565b9150600082019050919050565b60006109e5601983610c02565b91507f4e6f206d656d6265727320746f2063686f6f73652066726f6d000000000000006000830152602082019050919050565b610a2181610c63565b82525050565b610a38610a3382610c63565b610c91565b82525050565b6000610a49826109be565b9150819050919050565b6000610a5f8286610a27565b602082019150610a6f8285610a27565b602082019150610a7f828461083a565b601482019150819050949350505050565b6000602082019050610aa5600083018461082b565b92915050565b6000602082019050610ac0600083018461081c565b92915050565b60006020820190508181036000830152610ae08184610851565b905092915050565b6000602082019050610afd60008301846108af565b92915050565b60006020820190508181036000830152610b1c816108be565b9050919050565b60006020820190508181036000830152610b3c816108fe565b9050919050565b60006020820190508181036000830152610b5c8161093e565b9050919050565b60006020820190508181036000830152610b7c8161097e565b9050919050565b60006020820190508181036000830152610b9c816109d8565b9050919050565b6000602082019050610bb86000830184610a18565b92915050565b6000819050602082019050919050565b600081519050919050565b6000602082019050919050565b600082825260208201905092915050565b600081905092915050565b600082825260208201905092915050565b6000610c1e82610c43565b9050919050565b6000610c3082610c43565b9050919050565b60008115159050919050565b600073ffffffffffffffffffffffffffffffffffffffff82169050919050565b6000819050919050565b6000610c7882610c7f565b9050919050565b6000610c8a82610cfb565b9050919050565b6000819050919050565b6000610ca682610c63565b9150610cb183610c63565b925082610cc157610cc0610ccc565b5b828206905092915050565b7f4e487b7100000000000000000000000000000000000000000000000000000000600052601260045260246000fd5b60008160601b9050919050565b610d1181610c63565b8114610d1c57600080fd5b5056fea26469706673582212201b9ff1117af02980d3532b555b51b81d6cf18d5fe0b63507385784b69a21248e64736f6c63430008000033",
  "immutableReferences": {},
  "source": "// SPDX-License-Identifier: MIT\r\npragma solidity ^0.8.0;\r\n\r\ncontract Lottery {\r\n    address payable public winner;\r\n    address payable[] public members;\r\n    address public manager;\r\n\r\n    constructor() {\r\n        manager = msg.sender;\r\n    }\r\n\r\n    function join() public payable returns (bool) {\r\n        require(msg.value == 1 ether, \"Please pay 1 ETH for join!\");\r\n        members.push(payable(msg.sender));\r\n        return true;\r\n    }\r\n\r\n    function getBalance() public view returns (uint) {\r\n        //require(manager == msg.sender, \"You cannot show the balance!\");\r\n        return address(this).balance;\r\n    }   \r\n\r\n    function random() private view returns (uint) {\r\n        return\r\n            uint(\r\n                keccak256(\r\n                    abi.encodePacked(\r\n                        block.timestamp,\r\n                        block.difficulty, // Use block.difficulty in older versions block.prevrandao\r\n                        msg.sender\r\n                    )\r\n                )\r\n            ) % members.length;\r\n    }\r\n\r\n    function getWinner() public returns (address) {\r\n        require(manager == msg.sender, \"You cannot roll the drum!\");\r\n        require(members.length > 0, \"No members to choose from\");\r\n        require(address(this).balance > 0, \"No ETH to transfer\");\r\n        \r\n        uint index = random();\r\n        winner = members[index];\r\n        (bool success, ) = winner.call{value: getBalance()}(\"\");\r\n        require(success, \"Transfer failed!\");\r\n        members = new address payable[](0);\r\n        return winner;\r\n    }\r\n\r\n    function getMembers() public view returns (address payable[] memory) {\r\n    return members;\r\n}\r\n}",
  "sourcePath": "C:\\Users\\aarte\\OneDrive\\Desktop\\-\\Programming\\Repositories\\My repositories\\Web 3.0\\contracts\\lottery.sol",
  "compiler": {
    "name": "solc",
    "version": "0.8.0+commit.c7dfd78e.Emscripten.clang"
  },
  "schemaVersion": "3.4.16",
  "updatedAt": "2026-02-18T18:34:01.843Z",
  "networkType": "ethereum",
  "devdoc": {
    "kind": "dev",
    "methods": {},
    "version": 1
  },
  "userdoc": {
    "kind": "user",
    "methods": {},
    "version": 1
  }
}