{
  "contractName": "System_for_booking",
  "abi": [
    {
      "inputs": [],
      "stateMutability": "nonpayable",
      "type": "constructor"
    },
    {
      "inputs": [
        {
          "internalType": "uint256",
          "name": "",
          "type": "uint256"
        }
      ],
      "name": "bookings",
      "outputs": [
        {
          "internalType": "uint256",
          "name": "id",
          "type": "uint256"
        },
        {
          "internalType": "uint256",
          "name": "resourceId",
          "type": "uint256"
        },
        {
          "internalType": "address",
          "name": "user",
          "type": "address"
        },
        {
          "internalType": "uint256",
          "name": "startDate",
          "type": "uint256"
        },
        {
          "internalType": "uint256",
          "name": "endDate",
          "type": "uint256"
        },
        {
          "internalType": "uint256",
          "name": "status",
          "type": "uint256"
        }
      ],
      "stateMutability": "view",
      "type": "function"
    },
    {
      "inputs": [
        {
          "internalType": "uint256",
          "name": "",
          "type": "uint256"
        }
      ],
      "name": "bookingsArray",
      "outputs": [
        {
          "internalType": "uint256",
          "name": "id",
          "type": "uint256"
        },
        {
          "internalType": "uint256",
          "name": "resourceId",
          "type": "uint256"
        },
        {
          "internalType": "address",
          "name": "user",
          "type": "address"
        },
        {
          "internalType": "uint256",
          "name": "startDate",
          "type": "uint256"
        },
        {
          "internalType": "uint256",
          "name": "endDate",
          "type": "uint256"
        },
        {
          "internalType": "uint256",
          "name": "status",
          "type": "uint256"
        }
      ],
      "stateMutability": "view",
      "type": "function"
    },
    {
      "inputs": [],
      "name": "owner",
      "outputs": [
        {
          "internalType": "address",
          "name": "",
          "type": "address"
        }
      ],
      "stateMutability": "view",
      "type": "function"
    },
    {
      "inputs": [
        {
          "internalType": "uint256",
          "name": "",
          "type": "uint256"
        }
      ],
      "name": "resources",
      "outputs": [
        {
          "internalType": "uint256",
          "name": "id",
          "type": "uint256"
        },
        {
          "internalType": "string",
          "name": "name",
          "type": "string"
        },
        {
          "internalType": "address",
          "name": "owner",
          "type": "address"
        },
        {
          "internalType": "bool",
          "name": "isActive",
          "type": "bool"
        }
      ],
      "stateMutability": "view",
      "type": "function"
    },
    {
      "inputs": [
        {
          "internalType": "string",
          "name": "name",
          "type": "string"
        }
      ],
      "name": "addResource",
      "outputs": [],
      "stateMutability": "nonpayable",
      "type": "function"
    },
    {
      "inputs": [
        {
          "internalType": "uint256",
          "name": "resourceId",
          "type": "uint256"
        }
      ],
      "name": "deactivationResource",
      "outputs": [],
      "stateMutability": "nonpayable",
      "type": "function"
    },
    {
      "inputs": [
        {
          "internalType": "uint256",
          "name": "resourceId",
          "type": "uint256"
        },
        {
          "internalType": "uint256",
          "name": "daysBooking",
          "type": "uint256"
        }
      ],
      "name": "Orented",
      "outputs": [],
      "stateMutability": "nonpayable",
      "type": "function"
    },
    {
      "inputs": [
        {
          "internalType": "uint256",
          "name": "bookingId",
          "type": "uint256"
        }
      ],
      "name": "CancelOrend",
      "outputs": [],
      "stateMutability": "nonpayable",
      "type": "function"
    },
    {
      "inputs": [],
      "name": "history",
      "outputs": [
        {
          "components": [
            {
              "internalType": "uint256",
              "name": "id",
              "type": "uint256"
            },
            {
              "internalType": "uint256",
              "name": "resourceId",
              "type": "uint256"
            },
            {
              "internalType": "address",
              "name": "user",
              "type": "address"
            },
            {
              "internalType": "uint256",
              "name": "startDate",
              "type": "uint256"
            },
            {
              "internalType": "uint256",
              "name": "endDate",
              "type": "uint256"
            },
            {
              "internalType": "uint256",
              "name": "status",
              "type": "uint256"
            }
          ],
          "internalType": "struct System_for_booking.Booking[]",
          "name": "",
          "type": "tuple[]"
        }
      ],
      "stateMutability": "view",
      "type": "function"
    },
    {
      "inputs": [
        {
          "internalType": "uint256",
          "name": "first",
          "type": "uint256"
        },
        {
          "internalType": "uint256",
          "name": "second",
          "type": "uint256"
        }
      ],
      "name": "getNumber",
      "outputs": [
        {
          "internalType": "uint256",
          "name": "",
          "type": "uint256"
        }
      ],
      "stateMutability": "pure",
      "type": "function"
    }
  ],
  "bytecode": "0x60806040526000600155600060035534801561001a57600080fd5b5033600560006101000a81548173ffffffffffffffffffffffffffffffffffffffff021916908373ffffffffffffffffffffffffffffffffffffffff16021790555061154e8061006b6000396000f3fe608060405234801561001057600080fd5b506004361061009e5760003560e01c80638a15309b116100665780638a15309b1461015f5780638da5cb5b1461017b57806398daac8314610199578063a7488e27146101b7578063f3490489146101ec5761009e565b80631dab301e146100a3578063244d6daa146100d85780632508046e1461010b578063421318bd1461012757806367b26fd814610143575b600080fd5b6100bd60048036038101906100b89190610d18565b61021c565b6040516100cf96959493929190611236565b60405180910390f35b6100f260048036038101906100ed9190610d18565b610278565b60405161010294939291906111ea565b60405180910390f35b61012560048036038101906101209190610d18565b61035d565b005b610141600480360381019061013c9190610d41565b61041e565b005b61015d60048036038101906101589190610d18565b6106b3565b005b61017960048036038101906101749190610cd3565b6107e6565b005b6101836109fd565b60405161019091906110b2565b60405180910390f35b6101a1610a23565b6040516101ae91906110cd565b60405180910390f35b6101d160048036038101906101cc9190610d18565b610b4f565b6040516101e396959493929190611236565b60405180910390f35b61020660048036038101906102019190610d41565b610bbb565b60405161021391906111cf565b60405180910390f35b60026020528060005260406000206000915090508060000154908060010154908060020160009054906101000a900473ffffffffffffffffffffffffffffffffffffffff16908060030154908060040154908060050154905086565b60006020528060005260406000206000915090508060000154908060010180546102a190611417565b80601f01602080910402602001604051908101604052809291908181526020018280546102cd90611417565b801561031a5780601f106102ef5761010080835404028352916020019161031a565b820191906000526020600020905b8154815290600101906020018083116102fd57829003601f168201915b5050505050908060020160009054906101000a900473ffffffffffffffffffffffffffffffffffffffff16908060020160149054906101000a900460ff16905084565b3373ffffffffffffffffffffffffffffffffffffffff16600560009054906101000a900473ffffffffffffffffffffffffffffffffffffffff1673ffffffffffffffffffffffffffffffffffffffff16146103ed576040517f08c379a00000000000000000000000000000000000000000000000000000000081526004016103e4906111af565b60405180910390fd5b600080600083815260200190815260200160002060020160146101000a81548160ff02191690831515021790555050565b60008083815260200190815260200160002060020160149054906101000a900460ff16610480576040517f08c379a0000000000000000000000000000000000000000000000000000000008152600401610477906110ef565b60405180910390fd5b600081116104c3576040517f08c379a00000000000000000000000000000000000000000000000000000000081526004016104ba9061118f565b60405180910390fd5b60006040518060c0016040528060035481526020018481526020013373ffffffffffffffffffffffffffffffffffffffff168152602001428152602001620151808461050f9190611342565b4261051a91906112ec565b8152602001600180811115610558577f4e487b7100000000000000000000000000000000000000000000000000000000600052602160045260246000fd5b815250905080600260006003548152602001908152602001600020600082015181600001556020820151816001015560408201518160020160006101000a81548173ffffffffffffffffffffffffffffffffffffffff021916908373ffffffffffffffffffffffffffffffffffffffff160217905550606082015181600301556080820151816004015560a082015181600501559050506004819080600181540180825580915050600190039060005260206000209060060201600090919091909150600082015181600001556020820151816001015560408201518160020160006101000a81548173ffffffffffffffffffffffffffffffffffffffff021916908373ffffffffffffffffffffffffffffffffffffffff160217905550606082015181600301556080820151816004015560a082015181600501555050600360008154809291906106a990611449565b9190505550505050565b3373ffffffffffffffffffffffffffffffffffffffff166002600083815260200190815260200160002060020160009054906101000a900473ffffffffffffffffffffffffffffffffffffffff1673ffffffffffffffffffffffffffffffffffffffff1614610757576040517f08c379a000000000000000000000000000000000000000000000000000000000815260040161074e9061112f565b60405180910390fd5b60006001811115610791577f4e487b7100000000000000000000000000000000000000000000000000000000600052602160045260246000fd5b6002600083815260200190815260200160002060050181905550600060026000838152602001908152602001600020600301819055506000600260008381526020019081526020016000206004018190555050565b3373ffffffffffffffffffffffffffffffffffffffff16600560009054906101000a900473ffffffffffffffffffffffffffffffffffffffff1673ffffffffffffffffffffffffffffffffffffffff1614610876576040517f08c379a000000000000000000000000000000000000000000000000000000000815260040161086d9061110f565b60405180910390fd5b600082829050116108bc576040517f08c379a00000000000000000000000000000000000000000000000000000000081526004016108b39061114f565b60405180910390fd5b6040518060800160405280600154815260200183838080601f016020809104026020016040519081016040528093929190818152602001838380828437600081840152601f19601f8201169050808301925050505050505081526020013373ffffffffffffffffffffffffffffffffffffffff168152602001600115158152506000806001548152602001908152602001600020600082015181600001556020820151816001019080519060200190610976929190610bd1565b5060408201518160020160006101000a81548173ffffffffffffffffffffffffffffffffffffffff021916908373ffffffffffffffffffffffffffffffffffffffff16021790555060608201518160020160146101000a81548160ff021916908315150217905550905050600160008154809291906109f490611449565b91905055505050565b600560009054906101000a900473ffffffffffffffffffffffffffffffffffffffff1681565b6060600060035411610a6a576040517f08c379a0000000000000000000000000000000000000000000000000000000008152600401610a619061116f565b60405180910390fd5b6004805480602002602001604051908101604052809291908181526020016000905b82821015610b4657838290600052602060002090600602016040518060c001604052908160008201548152602001600182015481526020016002820160009054906101000a900473ffffffffffffffffffffffffffffffffffffffff1673ffffffffffffffffffffffffffffffffffffffff1673ffffffffffffffffffffffffffffffffffffffff168152602001600382015481526020016004820154815260200160058201548152505081526020019060010190610a8c565b50505050905090565b60048181548110610b5f57600080fd5b90600052602060002090600602016000915090508060000154908060010154908060020160009054906101000a900473ffffffffffffffffffffffffffffffffffffffff16908060030154908060040154908060050154905086565b60008183610bc991906112ec565b905092915050565b828054610bdd90611417565b90600052602060002090601f016020900481019282610bff5760008555610c46565b82601f10610c1857805160ff1916838001178555610c46565b82800160010185558215610c46579182015b82811115610c45578251825591602001919060010190610c2a565b5b509050610c539190610c57565b5090565b5b80821115610c70576000816000905550600101610c58565b5090565b60008083601f840112610c8657600080fd5b8235905067ffffffffffffffff811115610c9f57600080fd5b602083019150836001820283011115610cb757600080fd5b9250929050565b600081359050610ccd81611501565b92915050565b60008060208385031215610ce657600080fd5b600083013567ffffffffffffffff811115610d0057600080fd5b610d0c85828601610c74565b92509250509250929050565b600060208284031215610d2a57600080fd5b6000610d3884828501610cbe565b91505092915050565b60008060408385031215610d5457600080fd5b6000610d6285828601610cbe565b9250506020610d7385828601610cbe565b9150509250929050565b6000610d898383611019565b60c08301905092915050565b610d9e8161139c565b82525050565b610dad8161139c565b82525050565b6000610dbe826112a7565b610dc881856112ca565b9350610dd383611297565b8060005b83811015610e04578151610deb8882610d7d565b9750610df6836112bd565b925050600181019050610dd7565b5085935050505092915050565b610e1a816113ae565b82525050565b6000610e2b826112b2565b610e3581856112db565b9350610e458185602086016113e4565b610e4e816114f0565b840191505092915050565b6000610e66601b836112db565b91507f54686973207265736f75726365206973206e6f742061637469766500000000006000830152602082019050919050565b6000610ea6600d836112db565b91507f596f75206e6f74206f776e6572000000000000000000000000000000000000006000830152602082019050919050565b6000610ee6601d836112db565b91507f596f752063616e27742063616e63656c207468697320626f6f6b696e670000006000830152602082019050919050565b6000610f26600a836112db565b91507f456d707479206e616d65000000000000000000000000000000000000000000006000830152602082019050919050565b6000610f66600d836112db565b91507f426f6f6b696e6720656d707479000000000000000000000000000000000000006000830152602082019050919050565b6000610fa6600d836112db565b91507f496e76616c69642076616c7565000000000000000000000000000000000000006000830152602082019050919050565b6000610fe66019836112db565b91507f4f6e6c79206f776e65722063616e2064656163746976617465000000000000006000830152602082019050919050565b60c08201600082015161102f6000850182611094565b5060208201516110426020850182611094565b5060408201516110556040850182610d95565b5060608201516110686060850182611094565b50608082015161107b6080850182611094565b5060a082015161108e60a0850182611094565b50505050565b61109d816113da565b82525050565b6110ac816113da565b82525050565b60006020820190506110c76000830184610da4565b92915050565b600060208201905081810360008301526110e78184610db3565b905092915050565b6000602082019050818103600083015261110881610e59565b9050919050565b6000602082019050818103600083015261112881610e99565b9050919050565b6000602082019050818103600083015261114881610ed9565b9050919050565b6000602082019050818103600083015261116881610f19565b9050919050565b6000602082019050818103600083015261118881610f59565b9050919050565b600060208201905081810360008301526111a881610f99565b9050919050565b600060208201905081810360008301526111c881610fd9565b9050919050565b60006020820190506111e460008301846110a3565b92915050565b60006080820190506111ff60008301876110a3565b81810360208301526112118186610e20565b90506112206040830185610da4565b61122d6060830184610e11565b95945050505050565b600060c08201905061124b60008301896110a3565b61125860208301886110a3565b6112656040830187610da4565b61127260608301866110a3565b61127f60808301856110a3565b61128c60a08301846110a3565b979650505050505050565b6000819050602082019050919050565b600081519050919050565b600081519050919050565b6000602082019050919050565b600082825260208201905092915050565b600082825260208201905092915050565b60006112f7826113da565b9150611302836113da565b9250827fffffffffffffffffffffffffffffffffffffffffffffffffffffffffffffffff0382111561133757611336611492565b5b828201905092915050565b600061134d826113da565b9150611358836113da565b9250817fffffffffffffffffffffffffffffffffffffffffffffffffffffffffffffffff048311821515161561139157611390611492565b5b828202905092915050565b60006113a7826113ba565b9050919050565b60008115159050919050565b600073ffffffffffffffffffffffffffffffffffffffff82169050919050565b6000819050919050565b60005b838110156114025780820151818401526020810190506113e7565b83811115611411576000848401525b50505050565b6000600282049050600182168061142f57607f821691505b60208210811415611443576114426114c1565b5b50919050565b6000611454826113da565b91507fffffffffffffffffffffffffffffffffffffffffffffffffffffffffffffffff82141561148757611486611492565b5b600182019050919050565b7f4e487b7100000000000000000000000000000000000000000000000000000000600052601160045260246000fd5b7f4e487b7100000000000000000000000000000000000000000000000000000000600052602260045260246000fd5b6000601f19601f8301169050919050565b61150a816113da565b811461151557600080fd5b5056fea26469706673582212208e362b6c760614ad6026a75a40e062302a9cb668a7afa958893cadadb9d9f71e64736f6c63430008000033",
  "immutableReferences": {},
  "source": "// SPDX-License-Identifier: MIT\r\n\r\npragma solidity ^0.8.0;\r\n\r\ncontract System_for_booking {\r\n\r\n    enum Status {\r\n        Unrented,\r\n        Rented\r\n    }\r\n\r\n    struct Resource {\r\n        uint id;\r\n        string name;\r\n        address owner;\r\n        bool isActive;\r\n    }\r\n\r\n    struct Booking {\r\n        uint256 id;\r\n        uint256 resourceId;\r\n        address user;\r\n        uint256 startDate;\r\n        uint256 endDate;\r\n        uint256 status;\r\n    }\r\n\r\n    mapping (uint256 => Resource) public resources;\r\n    uint256 resourceCount = 0;\r\n\r\n    mapping (uint256 => Booking) public bookings;\r\n    uint256 bookingCount = 0;\r\n\r\n    Booking[] public bookingsArray;\r\n\r\n    address public owner;\r\n\r\n    constructor() {\r\n        owner = msg.sender;\r\n    }\r\n\r\n    function addResource (string calldata name) public {\r\n        require(owner == msg.sender, \"You not owner\");\r\n        require(bytes(name).length > 0, \"Empty name\");\r\n\r\n        resources[resourceCount] = Resource({\r\n            id: resourceCount,\r\n            name: name,\r\n            owner: msg.sender,\r\n            isActive: true\r\n        });\r\n\r\n        resourceCount++;\r\n    }\r\n\r\n    function deactivationResource(uint256 resourceId) public {\r\n        require(owner == msg.sender, \"Only owner can deactivate\");\r\n\r\n        resources[resourceId].isActive = false;\r\n    }\r\n\r\n    function Orented(uint256 resourceId, uint256 daysBooking) public {\r\n        require(resources[resourceId].isActive, \"This resource is not active\");\r\n        require(daysBooking > 0, \"Invalid value\");\r\n    \r\n        Booking memory newBooking = Booking({\r\n            id: bookingCount,\r\n            resourceId: resourceId,\r\n            user: msg.sender,\r\n            startDate: block.timestamp,\r\n            endDate: block.timestamp + daysBooking * 1 days,\r\n            status: uint256(Status.Rented)\r\n        });\r\n\r\n        bookings[bookingCount] = newBooking;\r\n        bookingsArray.push(newBooking);\r\n        bookingCount++;\r\n    }\r\n\r\n    function CancelOrend(uint256 bookingId) external  {\r\n        require(bookings[bookingId].user == msg.sender, \"You can't cancel this booking\");\r\n\r\n        bookings[bookingId].status = uint256(Status.Unrented);\r\n        bookings[bookingId].startDate = 0;\r\n        bookings[bookingId].endDate = 0;\r\n    }\r\n\r\n    function history() public view returns(Booking[] memory) {\r\n        require(bookingCount > 0 , \"Booking empty\");\r\n\r\n        return bookingsArray;\r\n    }\r\n\r\n    function getNumber(uint256 first, uint256 second) public pure returns(uint256) {\r\n        return first + second;\r\n    }\r\n}",
  "sourcePath": "C:\\Users\\aarte\\OneDrive\\Desktop\\-\\Programming\\Repositories\\My repositories\\Web 3.0\\contracts\\System_for_booking.sol",
  "compiler": {
    "name": "solc",
    "version": "0.8.0+commit.c7dfd78e.Emscripten.clang"
  },
  "schemaVersion": "3.4.16",
  "updatedAt": "2026-02-13T17:48:46.209Z",
  "devdoc": {
    "kind": "dev",
    "methods": {},
    "version": 1
  },
  "userdoc": {
    "kind": "user",
    "methods": {},
    "version": 1
  }
}